000078002   20220224FCIGNA Transformation                                                           A8A00097H0000000039
1002962969702POWELL                        ERIN           N19760611FSP14769 W PASADENA AVE                                        LITCHFIELD PARK     AZ85340-00003213088001   OAP2 OAPIN           2010020120100302U3836637502200912150000000000
1010752744804CULVER                        EDWARD          19880204MCH9270 E MISSON LANE            UNIT 107                      SCOTTSDALE          AZ85258-00003213088001   OAP2 OAPIN           2012022720121231U4057701904201006034802846370
1052647468003MARCOTTE                      LORNA           19911029FCH2001 WEST VILLAGE DRIVE                                     PHOENIX             AZ85023-00003213088001   OAP2 OAPIN           2010050120121231U0508266303201004216023751051
1030866542203VOSSBERG                      GEORGE         L19890419MCH15614 N 51ST PLACE                                          SCOTTSDALE          AZ85254-00003213088001   OAP2 OAPIN           2011031320150430U4311475203201103096027887841
1030866542204VOSSBERG                      CLAYTON        S19920812MCH15614 N 51ST PLACE                                          SCOTTSDALE          AZ85254-00003213088001   OAP2 OAPIN           2011031320161231U4311475204201103096027887841
1010752744803CULVER                        MELISSA         19920430FCH9270 E MISSON LANE            UNIT 107                      SCOTTSDALE          AZ85258-00003213088001   OAP2 OAPIN           2016010120180430U4057701903201006034802846370
900078002   F000000003529